{
    "contractName": "SwapExamples",
    "abi": [
        {
            "inputs": [
                {
                    "internalType": "contract ISwapRouter",
                    "name": "_swapRouter",
                    "type": "address"
                }
            ],
            "stateMutability": "nonpayable",
            "type": "constructor"
        },
        {
            "inputs": [],
            "name": "DAI",
            "outputs": [
                {
                    "internalType": "address",
                    "name": "",
                    "type": "address"
                }
            ],
            "stateMutability": "view",
            "type": "function"
        },
        {
            "inputs": [],
            "name": "USDC",
            "outputs": [
                {
                    "internalType": "address",
                    "name": "",
                    "type": "address"
                }
            ],
            "stateMutability": "view",
            "type": "function"
        },
        {
            "inputs": [],
            "name": "WETH9",
            "outputs": [
                {
                    "internalType": "address",
                    "name": "",
                    "type": "address"
                }
            ],
            "stateMutability": "view",
            "type": "function"
        },
        {
            "inputs": [],
            "name": "poolFee",
            "outputs": [
                {
                    "internalType": "uint24",
                    "name": "",
                    "type": "uint24"
                }
            ],
            "stateMutability": "view",
            "type": "function"
        },
        {
            "inputs": [
                {
                    "internalType": "uint256",
                    "name": "amountIn",
                    "type": "uint256"
                }
            ],
            "name": "swapExactInputSingle",
            "outputs": [
                {
                    "internalType": "uint256",
                    "name": "amountOut",
                    "type": "uint256"
                }
            ],
            "stateMutability": "nonpayable",
            "type": "function"
        },
        {
            "inputs": [
                {
                    "internalType": "uint256",
                    "name": "amountOut",
                    "type": "uint256"
                },
                {
                    "internalType": "uint256",
                    "name": "amountInMaximum",
                    "type": "uint256"
                }
            ],
            "name": "swapExactOutputSingle",
            "outputs": [
                {
                    "internalType": "uint256",
                    "name": "amountIn",
                    "type": "uint256"
                }
            ],
            "stateMutability": "nonpayable",
            "type": "function"
        },
        {
            "inputs": [],
            "name": "swapRouter",
            "outputs": [
                {
                    "internalType": "contract ISwapRouter",
                    "name": "",
                    "type": "address"
                }
            ],
            "stateMutability": "view",
            "type": "function"
        }
    ],
    "bytecode": "60a060405234801561001057600080fd5b506040516109df3803806109df83398101604081905261002f91610040565b6001600160a01b0316608052610070565b60006020828403121561005257600080fd5b81516001600160a01b038116811461006957600080fd5b9392505050565b6080516109316100ae60003960008181610118015281816101c30152818161025a0152818161031d015281816103b4015261045801526109316000f3fe608060405234801561001057600080fd5b506004361061007d5760003560e01c806389a302711161005b57806389a30271146100f8578063c31c9c0714610113578063c4b69a181461013a578063e0bab4c41461014d57600080fd5b8063089fe6aa146100825780634aa4a4fc146100a457806373bd43ad146100d7575b600080fd5b61008b610bb881565b60405162ffffff90911681526020015b60405180910390f35b6100bf73c02aaa39b223fe8d0a0e5c4f27ead9083c756cc281565b6040516001600160a01b03909116815260200161009b565b6100ea6100e53660046107b5565b610168565b60405190815260200161009b565b6100bf73a0b86991c6218b36c1d19d4a2e9eb0ce3606eb4881565b6100bf7f000000000000000000000000000000000000000000000000000000000000000081565b6100ea6101483660046107ce565b6102e1565b6100bf736b175474e89094c44da98b954eedeac495271d0f81565b6000610189736b175474e89094c44da98b954eedeac495271d0f30846104ad565b6101a9736b175474e89094c44da98b954eedeac495271d0f3330856105b2565b6101e8736b175474e89094c44da98b954eedeac495271d0f7f0000000000000000000000000000000000000000000000000000000000000000846104ad565b6040805161010081018252736b175474e89094c44da98b954eedeac495271d0f815273c02aaa39b223fe8d0a0e5c4f27ead9083c756cc26020820152610bb88183015233606082015242608082015260a08101849052600060c0820181905260e0820152905163414bf38960e01b81527f00000000000000000000000000000000000000000000000000000000000000006001600160a01b03169063414bf389906102979084906004016107f0565b6020604051808303816000875af11580156102b6573d6000803e3d6000fd5b505050506040513d601f19601f820116820180604052508101906102da9190610860565b9392505050565b6000610303736b175474e89094c44da98b954eedeac495271d0f3330856105b2565b610342736b175474e89094c44da98b954eedeac495271d0f7f0000000000000000000000000000000000000000000000000000000000000000846104ad565b6040805161010081018252736b175474e89094c44da98b954eedeac495271d0f815273c02aaa39b223fe8d0a0e5c4f27ead9083c756cc26020820152610bb88183015233606082015242608082015260a0810185905260c08101849052600060e08201529051631b67c43360e31b81527f00000000000000000000000000000000000000000000000000000000000000006001600160a01b03169063db3e2198906103f19084906004016107f0565b6020604051808303816000875af1158015610410573d6000803e3d6000fd5b505050506040513d601f19601f820116820180604052508101906104349190610860565b9150828210156104a65761047e736b175474e89094c44da98b954eedeac495271d0f7f000000000000000000000000000000000000000000000000000000000000000060006104ad565b6104a6736b175474e89094c44da98b954eedeac495271d0f336104a18587610879565b6106bc565b5092915050565b604080516001600160a01b038481166024830152604480830185905283518084039091018152606490920183526020820180516001600160e01b031663095ea7b360e01b1790529151600092839290871691610509919061089e565b6000604051808303816000865af19150503d8060008114610546576040519150601f19603f3d011682016040523d82523d6000602084013e61054b565b606091505b509150915081801561057557508051158061057557508080602001905181019061057591906108d9565b6105ab5760405162461bcd60e51b8152602060048201526002602482015261534160f01b60448201526064015b60405180910390fd5b5050505050565b604080516001600160a01b0385811660248301528481166044830152606480830185905283518084039091018152608490920183526020820180516001600160e01b03166323b872dd60e01b1790529151600092839290881691610616919061089e565b6000604051808303816000865af19150503d8060008114610653576040519150601f19603f3d011682016040523d82523d6000602084013e610658565b606091505b509150915081801561068257508051158061068257508080602001905181019061068291906108d9565b6106b45760405162461bcd60e51b815260206004820152600360248201526229aa2360e91b60448201526064016105a2565b505050505050565b604080516001600160a01b038481166024830152604480830185905283518084039091018152606490920183526020820180516001600160e01b031663a9059cbb60e01b1790529151600092839290871691610718919061089e565b6000604051808303816000865af19150503d8060008114610755576040519150601f19603f3d011682016040523d82523d6000602084013e61075a565b606091505b509150915081801561078457508051158061078457508080602001905181019061078491906108d9565b6105ab5760405162461bcd60e51b815260206004820152600260248201526114d560f21b60448201526064016105a2565b6000602082840312156107c757600080fd5b5035919050565b600080604083850312156107e157600080fd5b50508035926020909101359150565b610100810161085a828480516001600160a01b03908116835260208083015182169084015260408083015162ffffff16908401526060808301518216908401526080808301519084015260a0828101519084015260c0808301519084015260e09182015116910152565b92915050565b60006020828403121561087257600080fd5b5051919050565b60008282101561089957634e487b7160e01b600052601160045260246000fd5b500390565b6000825160005b818110156108bf57602081860181015185830152016108a5565b818111156108ce576000828501525b509190910192915050565b6000602082840312156108eb57600080fd5b815180151581146102da57600080fdfea2646970667358221220def57ef43e0c11ad15fa67496d1f6d517dbfaa86952f6a64aa7e41f30c028df464736f6c634300080e0033",
    "sourcePath": "c:/Users/yanni/Documents/Formation Alyra/UniswapSolidity/contracts/SingleSwap.sol",
    "compiler": {
        "name": "solc",
        "version": "0.8.14+commit.80d49f37"
    },
    "functionHashes": {
        "DAI()": "e0bab4c4",
        "USDC()": "89a30271",
        "WETH9()": "4aa4a4fc",
        "poolFee()": "089fe6aa",
        "swapExactInputSingle(uint256)": "73bd43ad",
        "swapExactOutputSingle(uint256,uint256)": "c4b69a18",
        "swapRouter()": "c31c9c07"
    },
    "gasEstimates": {
        "creation": {
            "codeDepositCost": "470600",
            "executionCost": "infinite",
            "totalCost": "infinite"
        },
        "external": {
            "DAI()": "282",
            "USDC()": "216",
            "WETH9()": "239",
            "poolFee()": "194",
            "swapExactInputSingle(uint256)": "infinite",
            "swapExactOutputSingle(uint256,uint256)": "infinite",
            "swapRouter()": "infinite"
        }
    }
}